{
  "address": "0x668eD30aAcC7C7c206aAF1327d733226416233E2",
  "abi": [
    {
      "inputs": [
        {
          "internalType": "address",
          "name": "uniSwapAddress",
          "type": "address"
        },
        {
          "internalType": "address",
          "name": "teamRewardAddress",
          "type": "address"
        },
        {
          "internalType": "address",
          "name": "exchangeListingReserve",
          "type": "address"
        },
        {
          "internalType": "address",
          "name": "reservesAddress",
          "type": "address"
        }
      ],
      "stateMutability": "nonpayable",
      "type": "constructor"
    },
    {
      "anonymous": false,
      "inputs": [
        {
          "indexed": true,
          "internalType": "address",
          "name": "owner",
          "type": "address"
        },
        {
          "indexed": true,
          "internalType": "address",
          "name": "spender",
          "type": "address"
        },
        {
          "indexed": false,
          "internalType": "uint256",
          "name": "value",
          "type": "uint256"
        }
      ],
      "name": "Approval",
      "type": "event"
    },
    {
      "anonymous": false,
      "inputs": [
        {
          "indexed": true,
          "internalType": "address",
          "name": "previousOwner",
          "type": "address"
        },
        {
          "indexed": true,
          "internalType": "address",
          "name": "newOwner",
          "type": "address"
        }
      ],
      "name": "OwnershipTransferred",
      "type": "event"
    },
    {
      "anonymous": false,
      "inputs": [
        {
          "indexed": true,
          "internalType": "address",
          "name": "_newAddress",
          "type": "address"
        }
      ],
      "name": "SetNewContractAllowance",
      "type": "event"
    },
    {
      "anonymous": false,
      "inputs": [
        {
          "indexed": true,
          "internalType": "address",
          "name": "from",
          "type": "address"
        },
        {
          "indexed": true,
          "internalType": "address",
          "name": "to",
          "type": "address"
        },
        {
          "indexed": false,
          "internalType": "uint256",
          "name": "value",
          "type": "uint256"
        }
      ],
      "name": "Transfer",
      "type": "event"
    },
    {
      "inputs": [
        {
          "internalType": "address",
          "name": "owner",
          "type": "address"
        },
        {
          "internalType": "address",
          "name": "spender",
          "type": "address"
        }
      ],
      "name": "allowance",
      "outputs": [
        {
          "internalType": "uint256",
          "name": "",
          "type": "uint256"
        }
      ],
      "stateMutability": "view",
      "type": "function"
    },
    {
      "inputs": [
        {
          "internalType": "address",
          "name": "spender",
          "type": "address"
        },
        {
          "internalType": "uint256",
          "name": "amount",
          "type": "uint256"
        }
      ],
      "name": "approve",
      "outputs": [
        {
          "internalType": "bool",
          "name": "",
          "type": "bool"
        }
      ],
      "stateMutability": "nonpayable",
      "type": "function"
    },
    {
      "inputs": [
        {
          "internalType": "address",
          "name": "account",
          "type": "address"
        }
      ],
      "name": "balanceOf",
      "outputs": [
        {
          "internalType": "uint256",
          "name": "",
          "type": "uint256"
        }
      ],
      "stateMutability": "view",
      "type": "function"
    },
    {
      "inputs": [],
      "name": "decimals",
      "outputs": [
        {
          "internalType": "uint8",
          "name": "",
          "type": "uint8"
        }
      ],
      "stateMutability": "view",
      "type": "function"
    },
    {
      "inputs": [
        {
          "internalType": "address",
          "name": "spender",
          "type": "address"
        },
        {
          "internalType": "uint256",
          "name": "subtractedValue",
          "type": "uint256"
        }
      ],
      "name": "decreaseAllowance",
      "outputs": [
        {
          "internalType": "bool",
          "name": "",
          "type": "bool"
        }
      ],
      "stateMutability": "nonpayable",
      "type": "function"
    },
    {
      "inputs": [
        {
          "internalType": "address",
          "name": "spender",
          "type": "address"
        },
        {
          "internalType": "uint256",
          "name": "addedValue",
          "type": "uint256"
        }
      ],
      "name": "increaseAllowance",
      "outputs": [
        {
          "internalType": "bool",
          "name": "",
          "type": "bool"
        }
      ],
      "stateMutability": "nonpayable",
      "type": "function"
    },
    {
      "inputs": [],
      "name": "name",
      "outputs": [
        {
          "internalType": "string",
          "name": "",
          "type": "string"
        }
      ],
      "stateMutability": "view",
      "type": "function"
    },
    {
      "inputs": [],
      "name": "owner",
      "outputs": [
        {
          "internalType": "address",
          "name": "",
          "type": "address"
        }
      ],
      "stateMutability": "view",
      "type": "function"
    },
    {
      "inputs": [],
      "name": "renounceOwnership",
      "outputs": [],
      "stateMutability": "nonpayable",
      "type": "function"
    },
    {
      "inputs": [],
      "name": "reservesVestingContract",
      "outputs": [
        {
          "internalType": "contract TokenVesting",
          "name": "",
          "type": "address"
        }
      ],
      "stateMutability": "view",
      "type": "function"
    },
    {
      "inputs": [
        {
          "internalType": "address",
          "name": "allowanceAddress",
          "type": "address"
        }
      ],
      "name": "setAllowance",
      "outputs": [],
      "stateMutability": "nonpayable",
      "type": "function"
    },
    {
      "inputs": [],
      "name": "symbol",
      "outputs": [
        {
          "internalType": "string",
          "name": "",
          "type": "string"
        }
      ],
      "stateMutability": "view",
      "type": "function"
    },
    {
      "inputs": [],
      "name": "teamRewardVestingContract",
      "outputs": [
        {
          "internalType": "contract TokenVesting",
          "name": "",
          "type": "address"
        }
      ],
      "stateMutability": "view",
      "type": "function"
    },
    {
      "inputs": [],
      "name": "totalSupply",
      "outputs": [
        {
          "internalType": "uint256",
          "name": "",
          "type": "uint256"
        }
      ],
      "stateMutability": "view",
      "type": "function"
    },
    {
      "inputs": [
        {
          "internalType": "address",
          "name": "recipient",
          "type": "address"
        },
        {
          "internalType": "uint256",
          "name": "amount",
          "type": "uint256"
        }
      ],
      "name": "transfer",
      "outputs": [
        {
          "internalType": "bool",
          "name": "",
          "type": "bool"
        }
      ],
      "stateMutability": "nonpayable",
      "type": "function"
    },
    {
      "inputs": [
        {
          "internalType": "address",
          "name": "sender",
          "type": "address"
        },
        {
          "internalType": "address",
          "name": "recipient",
          "type": "address"
        },
        {
          "internalType": "uint256",
          "name": "amount",
          "type": "uint256"
        }
      ],
      "name": "transferFrom",
      "outputs": [
        {
          "internalType": "bool",
          "name": "",
          "type": "bool"
        }
      ],
      "stateMutability": "nonpayable",
      "type": "function"
    },
    {
      "inputs": [
        {
          "internalType": "address",
          "name": "newOwner",
          "type": "address"
        }
      ],
      "name": "transferOwnership",
      "outputs": [],
      "stateMutability": "nonpayable",
      "type": "function"
    }
  ],
  "transactionHash": "0x1c4e617f7fe2008d465ceb8e97c398560fcfd48b86f9e65dece119bcdcc09e09",
  "args": [
    "0xd026573E38f943a51a9C4C66EeF864f6abf87f6F",
    "0xd026573E38f943a51a9C4C66EeF864f6abf87f6F",
    "0xd026573E38f943a51a9C4C66EeF864f6abf87f6F",
    "0xd026573E38f943a51a9C4C66EeF864f6abf87f6F"
  ],
  "solcInputHash": "c15570ae541f6bea7258db1a2d1c0cb4",
  "bytecode": "0x60806040523480156200001157600080fd5b506040516200224f3803806200224f8339810160408190526200003491620005ef565b604080518082018252600b81526a20bab937bc102a37b5b2b760a91b6020808301918252835180850190945260048452635552555360e01b90840152815191929162000083916003916200051e565b508051620000999060049060208401906200051e565b505050620000b6620000b0620000f960201b60201c565b620000fd565b620000cc3369d3c21bcecceda10000006200014f565b620000e23069a30dc89cad279d40000062000227565b50620000ef81846200023f565b50505050620006b0565b3390565b600580546001600160a01b038381166001600160a01b0319831681179093556040519116919082907f8be0079c531659141344cd1fd0a4f28419497f9722a3daafe3b4186f6b6457e090600090a35050565b6001600160a01b038216620001ab5760405162461bcd60e51b815260206004820152601f60248201527f45524332303a206d696e7420746f20746865207a65726f20616464726573730060448201526064015b60405180910390fd5b8060026000828254620001bf91906200064c565b90915550506001600160a01b03821660009081526020819052604081208054839290620001ee9084906200064c565b90915550506040518181526001600160a01b038316906000906000805160206200222f8339815191529060200160405180910390a35050565b60006200023633848462000357565b50600192915050565b8163612ca37860006301e1338060006040516200025c90620005ad565b6001600160a01b0390951685526020850193909352604084019190915260608301521515608082015260a001604051809103906000f080158015620002a5573d6000803e3d6000fd5b50600660006101000a8154816001600160a01b0302191690836001600160a01b031602179055508063621c947860006303c267006000604051620002e990620005ad565b6001600160a01b0390951685526020850193909352604084019190915260608301521515608082015260a001604051809103906000f08015801562000332573d6000803e3d6000fd5b50600780546001600160a01b0319166001600160a01b03929092169190911790555050565b6001600160a01b038316620003bd5760405162461bcd60e51b815260206004820152602560248201527f45524332303a207472616e736665722066726f6d20746865207a65726f206164604482015264647265737360d81b6064820152608401620001a2565b6001600160a01b038216620004215760405162461bcd60e51b815260206004820152602360248201527f45524332303a207472616e7366657220746f20746865207a65726f206164647260448201526265737360e81b6064820152608401620001a2565b6001600160a01b038316600090815260208190526040902054818110156200049b5760405162461bcd60e51b815260206004820152602660248201527f45524332303a207472616e7366657220616d6f756e7420657863656564732062604482015265616c616e636560d01b6064820152608401620001a2565b6001600160a01b03808516600090815260208190526040808220858503905591851681529081208054849290620004d49084906200064c565b92505081905550826001600160a01b0316846001600160a01b03166000805160206200222f833981519152846040516200051091815260200190565b60405180910390a350505050565b8280546200052c9062000673565b90600052602060002090601f0160209004810192826200055057600085556200059b565b82601f106200056b57805160ff19168380011785556200059b565b828001600101855582156200059b579182015b828111156200059b5782518255916020019190600101906200057e565b50620005a9929150620005bb565b5090565b610ffc806200123383390190565b5b80821115620005a95760008155600101620005bc565b80516001600160a01b0381168114620005ea57600080fd5b919050565b600080600080608085870312156200060657600080fd5b6200061185620005d2565b93506200062160208601620005d2565b92506200063160408601620005d2565b91506200064160608601620005d2565b905092959194509250565b600082198211156200066e57634e487b7160e01b600052601160045260246000fd5b500190565b600181811c908216806200068857607f821691505b60208210811415620006aa57634e487b7160e01b600052602260045260246000fd5b50919050565b610b7380620006c06000396000f3fe608060405234801561001057600080fd5b506004361061010b5760003560e01c8063715018a6116100a2578063a9059cbb11610071578063a9059cbb14610222578063dd62ed3e14610235578063ee20e7841461026e578063ef27d22c14610281578063f2fde38b1461029457600080fd5b8063715018a6146101ec5780638da5cb5b146101f657806395d89b4114610207578063a457c2d71461020f57600080fd5b806323b872dd116100de57806323b872dd1461018e578063313ce567146101a157806339509351146101b057806370a08231146101c357600080fd5b806306fdde0314610110578063095ea7b31461012e57806318160ddd146101515780632191cccb14610163575b600080fd5b6101186102a7565b604051610125919061097b565b60405180910390f35b61014161013c3660046109ec565b610339565b6040519015158152602001610125565b6002545b604051908152602001610125565b600754610176906001600160a01b031681565b6040516001600160a01b039091168152602001610125565b61014161019c366004610a16565b61034f565b60405160128152602001610125565b6101416101be3660046109ec565b6103fe565b6101556101d1366004610a52565b6001600160a01b031660009081526020819052604090205490565b6101f461043a565b005b6005546001600160a01b0316610176565b610118610470565b61014161021d3660046109ec565b61047f565b6101416102303660046109ec565b610518565b610155610243366004610a74565b6001600160a01b03918216600090815260016020908152604080832093909416825291909152205490565b6101f461027c366004610a52565b610525565b600654610176906001600160a01b031681565b6101f46102a2366004610a52565b61059b565b6060600380546102b690610aa7565b80601f01602080910402602001604051908101604052809291908181526020018280546102e290610aa7565b801561032f5780601f106103045761010080835404028352916020019161032f565b820191906000526020600020905b81548152906001019060200180831161031257829003601f168201915b5050505050905090565b6000610346338484610636565b50600192915050565b600061035c84848461075a565b6001600160a01b0384166000908152600160209081526040808320338452909152902054828110156103e65760405162461bcd60e51b815260206004820152602860248201527f45524332303a207472616e7366657220616d6f756e74206578636565647320616044820152676c6c6f77616e636560c01b60648201526084015b60405180910390fd5b6103f38533858403610636565b506001949350505050565b3360008181526001602090815260408083206001600160a01b03871684529091528120549091610346918590610435908690610ae2565b610636565b6005546001600160a01b031633146104645760405162461bcd60e51b81526004016103dd90610b08565b61046e6000610929565b565b6060600480546102b690610aa7565b3360009081526001602090815260408083206001600160a01b0386168452909152812054828110156105015760405162461bcd60e51b815260206004820152602560248201527f45524332303a2064656372656173656420616c6c6f77616e63652062656c6f77604482015264207a65726f60d81b60648201526084016103dd565b61050e3385858403610636565b5060019392505050565b600061034633848461075a565b6005546001600160a01b0316331461054f5760405162461bcd60e51b81526004016103dd90610b08565b61056430826989a49213386742400000610636565b6040516001600160a01b038216907fa4b45df0b13018f890b8b1f2ca1b6cd0ad1c87f0c7c18c367ece0d25dc8df29c90600090a250565b6005546001600160a01b031633146105c55760405162461bcd60e51b81526004016103dd90610b08565b6001600160a01b03811661062a5760405162461bcd60e51b815260206004820152602660248201527f4f776e61626c653a206e6577206f776e657220697320746865207a65726f206160448201526564647265737360d01b60648201526084016103dd565b61063381610929565b50565b6001600160a01b0383166106985760405162461bcd60e51b8152602060048201526024808201527f45524332303a20617070726f76652066726f6d20746865207a65726f206164646044820152637265737360e01b60648201526084016103dd565b6001600160a01b0382166106f95760405162461bcd60e51b815260206004820152602260248201527f45524332303a20617070726f766520746f20746865207a65726f206164647265604482015261737360f01b60648201526084016103dd565b6001600160a01b0383811660008181526001602090815260408083209487168084529482529182902085905590518481527f8c5be1e5ebec7d5bd14f71427d1e84f3dd0314c0f7b2291e5b200ac8c7c3b925910160405180910390a3505050565b6001600160a01b0383166107be5760405162461bcd60e51b815260206004820152602560248201527f45524332303a207472616e736665722066726f6d20746865207a65726f206164604482015264647265737360d81b60648201526084016103dd565b6001600160a01b0382166108205760405162461bcd60e51b815260206004820152602360248201527f45524332303a207472616e7366657220746f20746865207a65726f206164647260448201526265737360e81b60648201526084016103dd565b6001600160a01b038316600090815260208190526040902054818110156108985760405162461bcd60e51b815260206004820152602660248201527f45524332303a207472616e7366657220616d6f756e7420657863656564732062604482015265616c616e636560d01b60648201526084016103dd565b6001600160a01b038085166000908152602081905260408082208585039055918516815290812080548492906108cf908490610ae2565b92505081905550826001600160a01b0316846001600160a01b03167fddf252ad1be2c89b69c2b068fc378daa952ba7f163c4a11628f55a4df523b3ef8460405161091b91815260200190565b60405180910390a350505050565b600580546001600160a01b038381166001600160a01b0319831681179093556040519116919082907f8be0079c531659141344cd1fd0a4f28419497f9722a3daafe3b4186f6b6457e090600090a35050565b600060208083528351808285015260005b818110156109a85785810183015185820160400152820161098c565b818111156109ba576000604083870101525b50601f01601f1916929092016040019392505050565b80356001600160a01b03811681146109e757600080fd5b919050565b600080604083850312156109ff57600080fd5b610a08836109d0565b946020939093013593505050565b600080600060608486031215610a2b57600080fd5b610a34846109d0565b9250610a42602085016109d0565b9150604084013590509250925092565b600060208284031215610a6457600080fd5b610a6d826109d0565b9392505050565b60008060408385031215610a8757600080fd5b610a90836109d0565b9150610a9e602084016109d0565b90509250929050565b600181811c90821680610abb57607f821691505b60208210811415610adc57634e487b7160e01b600052602260045260246000fd5b50919050565b60008219821115610b0357634e487b7160e01b600052601160045260246000fd5b500190565b6020808252818101527f4f776e61626c653a2063616c6c6572206973206e6f7420746865206f776e657260408201526060019056fea264697066735822122023e52a056d667ec0c344013fb14464f58b46747a668588376c07c98b4fb21f7c64736f6c634300080a003360806040523480156200001157600080fd5b5060405162000ffc38038062000ffc8339810160408190526200003491620002aa565b6200003f3362000245565b600180556001600160a01b038516620000b55760405162461bcd60e51b815260206004820152602d60248201527f546f6b656e56657374696e673a2062656e65666963696172792069732074686560448201526c207a65726f206164647265737360981b60648201526084015b60405180910390fd5b818311156200011b5760405162461bcd60e51b815260206004820152602b60248201527f546f6b656e56657374696e673a20636c696666206973206c6f6e67657220746860448201526a30b710323ab930ba34b7b760a91b6064820152608401620000ac565b600082116200016d5760405162461bcd60e51b815260206004820152601b60248201527f546f6b656e56657374696e673a206475726174696f6e206973203000000000006044820152606401620000ac565b426200018883866200029560201b620006c61790919060201c565b11620001ef5760405162461bcd60e51b815260206004820152602f60248201527f546f6b656e56657374696e673a2066696e616c2074696d65206973206265666f60448201526e72652063757272656e742074696d6560881b6064820152608401620000ac565b600280546001600160a01b0319166001600160a01b0387161790556006805460ff1916821515179055600582905562000235848462000295602090811b620006c617901c565b600355505050600455506200033d565b600080546001600160a01b038381166001600160a01b0319831681178455604051919092169283917f8be0079c531659141344cd1fd0a4f28419497f9722a3daafe3b4186f6b6457e09190a35050565b6000620002a3828462000316565b9392505050565b600080600080600060a08688031215620002c357600080fd5b85516001600160a01b0381168114620002db57600080fd5b80955050602086015193506040860151925060608601519150608086015180151581146200030857600080fd5b809150509295509295909350565b600082198211156200033857634e487b7160e01b600052601160045260246000fd5b500190565b610caf806200034d6000396000f3fe608060405234801561001057600080fd5b50600436106100b45760003560e01c8063872a781011610071578063872a78101461012d5780638da5cb5b146101445780639852595c14610155578063be9a65551461017e578063f2fde38b14610186578063fa01dc061461019957600080fd5b80630fb5a6b4146100b957806313d033c0146100d057806319165587146100d857806338af3eed146100ed578063715018a61461011257806374a8f1031461011a575b600080fd5b6005545b6040519081526020015b60405180910390f35b6003546100bd565b6100eb6100e6366004610ae7565b6101c5565b005b6002546001600160a01b03165b6040516001600160a01b0390911681526020016100c7565b6100eb610395565b6100eb610128366004610ae7565b6103cb565b60065460ff165b60405190151581526020016100c7565b6000546001600160a01b03166100fa565b6100bd610163366004610ae7565b6001600160a01b031660009081526007602052604090205490565b6004546100bd565b6100eb610194366004610ae7565b61062b565b6101346101a7366004610ae7565b6001600160a01b031660009081526008602052604090205460ff1690565b6002546001600160a01b0316336001600160a01b0316146102475760405162461bcd60e51b815260206004820152603160248201527f43616c6c6572206e6f74207468652062656e6566696369617279206f66207468604482015270652056657374696e6720616d6f756e747360781b60648201526084015b60405180910390fd5b6002600154141561029a5760405162461bcd60e51b815260206004820152601f60248201527f5265656e7472616e637947756172643a207265656e7472616e742063616c6c00604482015260640161023e565b600260015560006102aa826106d9565b9050600081116102fc5760405162461bcd60e51b815260206004820152601f60248201527f546f6b656e56657374696e673a206e6f20746f6b656e73206172652064756500604482015260640161023e565b6001600160a01b03821660009081526007602052604090205461031f90826106c6565b6001600160a01b0380841660008181526007602052604090209290925560025461034b9291168361070b565b604080516001600160a01b0384168152602081018390527fc7798891864187665ac6dd119286e44ec13f014527aeeb2b8eb3fd413df93179910160405180910390a1505060018055565b6000546001600160a01b031633146103bf5760405162461bcd60e51b815260040161023e90610b04565b6103c96000610762565b565b6000546001600160a01b031633146103f55760405162461bcd60e51b815260040161023e90610b04565b600260015414156104485760405162461bcd60e51b815260206004820152601f60248201527f5265656e7472616e637947756172643a207265656e7472616e742063616c6c00604482015260640161023e565b600260015560065460ff1661049f5760405162461bcd60e51b815260206004820152601b60248201527f546f6b656e56657374696e673a2063616e6e6f74207265766f6b650000000000604482015260640161023e565b6001600160a01b03811660009081526008602052604090205460ff16156105145760405162461bcd60e51b815260206004820152602360248201527f546f6b656e56657374696e673a20746f6b656e20616c7265616479207265766f6044820152621ad95960ea1b606482015260840161023e565b6040516370a0823160e01b81523060048201526000906001600160a01b038316906370a0823190602401602060405180830381865afa15801561055b573d6000803e3d6000fd5b505050506040513d601f19601f8201168201806040525081019061057f9190610b39565b9050600061058c836106d9565b9050600061059a83836107b2565b6001600160a01b0385166000908152600860205260409020805460ff1916600117905590506105e56105d46000546001600160a01b031690565b6001600160a01b038616908361070b565b6040516001600160a01b03851681527f39983c6d4d174a7aee564f449d4a5c3c7ac9649d72b7793c56901183996f8af69060200160405180910390a15050600180555050565b6000546001600160a01b031633146106555760405162461bcd60e51b815260040161023e90610b04565b6001600160a01b0381166106ba5760405162461bcd60e51b815260206004820152602660248201527f4f776e61626c653a206e6577206f776e657220697320746865207a65726f206160448201526564647265737360d01b606482015260840161023e565b6106c381610762565b50565b60006106d28284610b68565b9392505050565b6001600160a01b038116600090815260076020526040812054610705906106ff846107be565b906107b2565b92915050565b604080516001600160a01b038416602482015260448082018490528251808303909101815260649091019091526020810180516001600160e01b031663a9059cbb60e01b17905261075d9084906108dd565b505050565b600080546001600160a01b038381166001600160a01b0319831681178455604051919092169283917f8be0079c531659141344cd1fd0a4f28419497f9722a3daafe3b4186f6b6457e09190a35050565b60006106d28284610b80565b6040516370a0823160e01b815230600482015260009081906001600160a01b038416906370a0823190602401602060405180830381865afa158015610807573d6000803e3d6000fd5b505050506040513d601f19601f8201168201806040525081019061082b9190610b39565b6001600160a01b038416600090815260076020526040812054919250906108539083906106c6565b9050600354421015610869575060009392505050565b600554600454610878916106c6565b4210158061089e57506001600160a01b03841660009081526008602052604090205460ff165b156108aa579392505050565b6108d56005546108cf6108c8600454426107b290919063ffffffff16565b84906109af565b906109bb565b949350505050565b6000610932826040518060400160405280602081526020017f5361666545524332303a206c6f772d6c6576656c2063616c6c206661696c6564815250856001600160a01b03166109c79092919063ffffffff16565b80519091501561075d57808060200190518101906109509190610b97565b61075d5760405162461bcd60e51b815260206004820152602a60248201527f5361666545524332303a204552433230206f7065726174696f6e20646964206e6044820152691bdd081cdd58d8d9595960b21b606482015260840161023e565b60006106d28284610bb9565b60006106d28284610bd8565b60606108d5848460008585843b610a205760405162461bcd60e51b815260206004820152601d60248201527f416464726573733a2063616c6c20746f206e6f6e2d636f6e7472616374000000604482015260640161023e565b600080866001600160a01b03168587604051610a3c9190610c2a565b60006040518083038185875af1925050503d8060008114610a79576040519150601f19603f3d011682016040523d82523d6000602084013e610a7e565b606091505b5091509150610a8e828286610a99565b979650505050505050565b60608315610aa85750816106d2565b825115610ab85782518084602001fd5b8160405162461bcd60e51b815260040161023e9190610c46565b6001600160a01b03811681146106c357600080fd5b600060208284031215610af957600080fd5b81356106d281610ad2565b6020808252818101527f4f776e61626c653a2063616c6c6572206973206e6f7420746865206f776e6572604082015260600190565b600060208284031215610b4b57600080fd5b5051919050565b634e487b7160e01b600052601160045260246000fd5b60008219821115610b7b57610b7b610b52565b500190565b600082821015610b9257610b92610b52565b500390565b600060208284031215610ba957600080fd5b815180151581146106d257600080fd5b6000816000190483118215151615610bd357610bd3610b52565b500290565b600082610bf557634e487b7160e01b600052601260045260246000fd5b500490565b60005b83811015610c15578181015183820152602001610bfd565b83811115610c24576000848401525b50505050565b60008251610c3c818460208701610bfa565b9190910192915050565b6020815260008251806020840152610c65816040850160208701610bfa565b601f01601f1916919091016040019291505056fea2646970667358221220cdbb3627fb06eba129ef7993bac4c9ad984d550a6b116688ba16074a5d68ec3a64736f6c634300080a0033ddf252ad1be2c89b69c2b068fc378daa952ba7f163c4a11628f55a4df523b3ef",
  "devdoc": {
    "kind": "dev",
    "methods": {
      "allowance(address,address)": {
        "details": "See {IERC20-allowance}."
      },
      "approve(address,uint256)": {
        "details": "See {IERC20-approve}. Requirements: - `spender` cannot be the zero address."
      },
      "balanceOf(address)": {
        "details": "See {IERC20-balanceOf}."
      },
      "decimals()": {
        "details": "Returns the number of decimals used to get its user representation. For example, if `decimals` equals `2`, a balance of `505` tokens should be displayed to a user as `5.05` (`505 / 10 ** 2`). Tokens usually opt for a value of 18, imitating the relationship between Ether and Wei. This is the value {ERC20} uses, unless this function is overridden; NOTE: This information is only used for _display_ purposes: it in no way affects any of the arithmetic of the contract, including {IERC20-balanceOf} and {IERC20-transfer}."
      },
      "decreaseAllowance(address,uint256)": {
        "details": "Atomically decreases the allowance granted to `spender` by the caller. This is an alternative to {approve} that can be used as a mitigation for problems described in {IERC20-approve}. Emits an {Approval} event indicating the updated allowance. Requirements: - `spender` cannot be the zero address. - `spender` must have allowance for the caller of at least `subtractedValue`."
      },
      "increaseAllowance(address,uint256)": {
        "details": "Atomically increases the allowance granted to `spender` by the caller. This is an alternative to {approve} that can be used as a mitigation for problems described in {IERC20-approve}. Emits an {Approval} event indicating the updated allowance. Requirements: - `spender` cannot be the zero address."
      },
      "name()": {
        "details": "Returns the name of the token."
      },
      "owner()": {
        "details": "Returns the address of the current owner."
      },
      "renounceOwnership()": {
        "details": "Leaves the contract without owner. It will not be possible to call `onlyOwner` functions anymore. Can only be called by the current owner. NOTE: Renouncing ownership will leave the contract without an owner, thereby removing any functionality that is only available to the owner."
      },
      "setAllowance(address)": {
        "details": "This function sets the allowance of a given contract to have access to the pool funds",
        "params": {
          "allowanceAddress": "The address of the contract to set the allowance for"
        }
      },
      "symbol()": {
        "details": "Returns the symbol of the token, usually a shorter version of the name."
      },
      "totalSupply()": {
        "details": "See {IERC20-totalSupply}."
      },
      "transfer(address,uint256)": {
        "details": "See {IERC20-transfer}. Requirements: - `recipient` cannot be the zero address. - the caller must have a balance of at least `amount`."
      },
      "transferFrom(address,address,uint256)": {
        "details": "See {IERC20-transferFrom}. Emits an {Approval} event indicating the updated allowance. This is not required by the EIP. See the note at the beginning of {ERC20}. Requirements: - `sender` and `recipient` cannot be the zero address. - `sender` must have a balance of at least `amount`. - the caller must have allowance for ``sender``'s tokens of at least `amount`."
      },
      "transferOwnership(address)": {
        "details": "Transfers ownership of the contract to a new account (`newOwner`). Can only be called by the current owner."
      }
    },
    "version": 1
  },
  "userdoc": {
    "kind": "user",
    "methods": {},
    "version": 1
  },
  "storageLayout": {
    "storage": [
      {
        "astId": 159,
        "contract": "contracts/Token/AuroxToken.sol:AuroxToken",
        "label": "_balances",
        "offset": 0,
        "slot": "0",
        "type": "t_mapping(t_address,t_uint256)"
      },
      {
        "astId": 165,
        "contract": "contracts/Token/AuroxToken.sol:AuroxToken",
        "label": "_allowances",
        "offset": 0,
        "slot": "1",
        "type": "t_mapping(t_address,t_mapping(t_address,t_uint256))"
      },
      {
        "astId": 167,
        "contract": "contracts/Token/AuroxToken.sol:AuroxToken",
        "label": "_totalSupply",
        "offset": 0,
        "slot": "2",
        "type": "t_uint256"
      },
      {
        "astId": 169,
        "contract": "contracts/Token/AuroxToken.sol:AuroxToken",
        "label": "_name",
        "offset": 0,
        "slot": "3",
        "type": "t_string_storage"
      },
      {
        "astId": 171,
        "contract": "contracts/Token/AuroxToken.sol:AuroxToken",
        "label": "_symbol",
        "offset": 0,
        "slot": "4",
        "type": "t_string_storage"
      },
      {
        "astId": 7,
        "contract": "contracts/Token/AuroxToken.sol:AuroxToken",
        "label": "_owner",
        "offset": 0,
        "slot": "5",
        "type": "t_address"
      },
      {
        "astId": 6112,
        "contract": "contracts/Token/AuroxToken.sol:AuroxToken",
        "label": "reservesVestingContract",
        "offset": 0,
        "slot": "6",
        "type": "t_contract(TokenVesting)6648"
      },
      {
        "astId": 6115,
        "contract": "contracts/Token/AuroxToken.sol:AuroxToken",
        "label": "teamRewardVestingContract",
        "offset": 0,
        "slot": "7",
        "type": "t_contract(TokenVesting)6648"
      }
    ],
    "types": {
      "t_address": {
        "encoding": "inplace",
        "label": "address",
        "numberOfBytes": "20"
      },
      "t_contract(TokenVesting)6648": {
        "encoding": "inplace",
        "label": "contract TokenVesting",
        "numberOfBytes": "20"
      },
      "t_mapping(t_address,t_mapping(t_address,t_uint256))": {
        "encoding": "mapping",
        "key": "t_address",
        "label": "mapping(address => mapping(address => uint256))",
        "numberOfBytes": "32",
        "value": "t_mapping(t_address,t_uint256)"
      },
      "t_mapping(t_address,t_uint256)": {
        "encoding": "mapping",
        "key": "t_address",
        "label": "mapping(address => uint256)",
        "numberOfBytes": "32",
        "value": "t_uint256"
      },
      "t_string_storage": {
        "encoding": "bytes",
        "label": "string",
        "numberOfBytes": "32"
      },
      "t_uint256": {
        "encoding": "inplace",
        "label": "uint256",
        "numberOfBytes": "32"
      }
    }
  }
}