{
  "address": "0x50D75C1BC6a1cE35002C9f92D0AF4B3684aa6B74",
  "abi": [
    {
      "inputs": [
        {
          "internalType": "address",
          "name": "_auroxAddress",
          "type": "address"
        },
        {
          "internalType": "uint256",
          "name": "_epochStart",
          "type": "uint256"
        }
      ],
      "stateMutability": "nonpayable",
      "type": "constructor"
    },
    {
      "anonymous": false,
      "inputs": [
        {
          "indexed": true,
          "internalType": "address",
          "name": "stakeAddress",
          "type": "address"
        },
        {
          "indexed": false,
          "internalType": "uint256",
          "name": "_amount",
          "type": "uint256"
        }
      ],
      "name": "AddToStake",
      "type": "event"
    },
    {
      "anonymous": false,
      "inputs": [
        {
          "indexed": true,
          "internalType": "address",
          "name": "_from",
          "type": "address"
        },
        {
          "indexed": true,
          "internalType": "address",
          "name": "stakeAddress",
          "type": "address"
        },
        {
          "indexed": false,
          "internalType": "uint256",
          "name": "_claimableAmount",
          "type": "uint256"
        },
        {
          "indexed": false,
          "internalType": "uint256",
          "name": "_claimablePoolRewards",
          "type": "uint256"
        }
      ],
      "name": "ClaimRewards",
      "type": "event"
    },
    {
      "anonymous": false,
      "inputs": [
        {
          "indexed": true,
          "internalType": "address",
          "name": "_from",
          "type": "address"
        },
        {
          "indexed": false,
          "internalType": "address",
          "name": "stakeAddress",
          "type": "address"
        },
        {
          "indexed": false,
          "internalType": "uint256",
          "name": "_claimAmount",
          "type": "uint256"
        },
        {
          "indexed": false,
          "internalType": "uint256",
          "name": "_penaltyAmount",
          "type": "uint256"
        }
      ],
      "name": "CloseStaking",
      "type": "event"
    },
    {
      "anonymous": false,
      "inputs": [
        {
          "indexed": true,
          "internalType": "address",
          "name": "_from",
          "type": "address"
        },
        {
          "indexed": false,
          "internalType": "address",
          "name": "stakeAddress",
          "type": "address"
        },
        {
          "indexed": false,
          "internalType": "uint256",
          "name": "_stakeEndTime",
          "type": "uint256"
        },
        {
          "indexed": false,
          "internalType": "uint256",
          "name": "_amount",
          "type": "uint256"
        }
      ],
      "name": "CreateStaking",
      "type": "event"
    },
    {
      "anonymous": false,
      "inputs": [
        {
          "indexed": true,
          "internalType": "address",
          "name": "previousOwner",
          "type": "address"
        },
        {
          "indexed": true,
          "internalType": "address",
          "name": "newOwner",
          "type": "address"
        }
      ],
      "name": "OwnershipTransferred",
      "type": "event"
    },
    {
      "anonymous": false,
      "inputs": [
        {
          "indexed": true,
          "internalType": "address",
          "name": "_newAddress",
          "type": "address"
        }
      ],
      "name": "UpdateProviderAddress",
      "type": "event"
    },
    {
      "stateMutability": "payable",
      "type": "fallback"
    },
    {
      "inputs": [
        {
          "internalType": "address",
          "name": "_stakingAddress",
          "type": "address"
        },
        {
          "internalType": "uint256",
          "name": "_amount",
          "type": "uint256"
        }
      ],
      "name": "addToStake",
      "outputs": [],
      "stateMutability": "nonpayable",
      "type": "function"
    },
    {
      "inputs": [
        {
          "components": [
            {
              "internalType": "uint256",
              "name": "_balance",
              "type": "uint256"
            },
            {
              "internalType": "address",
              "name": "_recipient",
              "type": "address"
            },
            {
              "internalType": "uint256",
              "name": "_investedAmount",
              "type": "uint256"
            },
            {
              "internalType": "uint256",
              "name": "_stakeEndTime",
              "type": "uint256"
            },
            {
              "internalType": "uint256",
              "name": "_interestRate",
              "type": "uint256"
            },
            {
              "internalType": "uint256",
              "name": "_lastUpdate",
              "type": "uint256"
            },
            {
              "internalType": "bool",
              "name": "_compounded",
              "type": "bool"
            },
            {
              "internalType": "uint256",
              "name": "_rawInvestedAmount",
              "type": "uint256"
            },
            {
              "internalType": "uint256",
              "name": "_stakeStartTime",
              "type": "uint256"
            },
            {
              "internalType": "bool",
              "name": "_providerStake",
              "type": "bool"
            }
          ],
          "internalType": "struct IStakingMaster.RecreateStakeArgs[]",
          "name": "recreateStakeArgs",
          "type": "tuple[]"
        }
      ],
      "name": "batchRecreateStake",
      "outputs": [],
      "stateMutability": "nonpayable",
      "type": "function"
    },
    {
      "inputs": [
        {
          "internalType": "address",
          "name": "_stakingAddress",
          "type": "address"
        }
      ],
      "name": "claimRewards",
      "outputs": [],
      "stateMutability": "nonpayable",
      "type": "function"
    },
    {
      "inputs": [
        {
          "internalType": "address",
          "name": "_stakingAddress",
          "type": "address"
        }
      ],
      "name": "closeStake",
      "outputs": [],
      "stateMutability": "nonpayable",
      "type": "function"
    },
    {
      "inputs": [
        {
          "internalType": "uint256",
          "name": "_amount",
          "type": "uint256"
        },
        {
          "internalType": "uint256",
          "name": "_duration",
          "type": "uint256"
        },
        {
          "internalType": "address",
          "name": "_recipient",
          "type": "address"
        }
      ],
      "name": "createStaking",
      "outputs": [],
      "stateMutability": "nonpayable",
      "type": "function"
    },
    {
      "inputs": [],
      "name": "investedTotal",
      "outputs": [
        {
          "internalType": "uint256",
          "name": "",
          "type": "uint256"
        }
      ],
      "stateMutability": "view",
      "type": "function"
    },
    {
      "inputs": [],
      "name": "localCreationCount",
      "outputs": [
        {
          "internalType": "uint160",
          "name": "",
          "type": "uint160"
        }
      ],
      "stateMutability": "view",
      "type": "function"
    },
    {
      "inputs": [],
      "name": "owner",
      "outputs": [
        {
          "internalType": "address",
          "name": "",
          "type": "address"
        }
      ],
      "stateMutability": "view",
      "type": "function"
    },
    {
      "inputs": [],
      "name": "poolRewardsTotal",
      "outputs": [
        {
          "internalType": "uint256",
          "name": "",
          "type": "uint256"
        }
      ],
      "stateMutability": "view",
      "type": "function"
    },
    {
      "inputs": [
        {
          "components": [
            {
              "internalType": "uint256",
              "name": "_balance",
              "type": "uint256"
            },
            {
              "internalType": "address",
              "name": "_recipient",
              "type": "address"
            },
            {
              "internalType": "uint256",
              "name": "_investedAmount",
              "type": "uint256"
            },
            {
              "internalType": "uint256",
              "name": "_stakeEndTime",
              "type": "uint256"
            },
            {
              "internalType": "uint256",
              "name": "_interestRate",
              "type": "uint256"
            },
            {
              "internalType": "uint256",
              "name": "_lastUpdate",
              "type": "uint256"
            },
            {
              "internalType": "bool",
              "name": "_compounded",
              "type": "bool"
            },
            {
              "internalType": "uint256",
              "name": "_rawInvestedAmount",
              "type": "uint256"
            },
            {
              "internalType": "uint256",
              "name": "_stakeStartTime",
              "type": "uint256"
            },
            {
              "internalType": "bool",
              "name": "_providerStake",
              "type": "bool"
            }
          ],
          "internalType": "struct IStakingMaster.RecreateStakeArgs",
          "name": "recreateStakeArgs",
          "type": "tuple"
        }
      ],
      "name": "recreateStake",
      "outputs": [],
      "stateMutability": "nonpayable",
      "type": "function"
    },
    {
      "inputs": [],
      "name": "renounceOwnership",
      "outputs": [],
      "stateMutability": "nonpayable",
      "type": "function"
    },
    {
      "inputs": [
        {
          "internalType": "address",
          "name": "_stakingAddress",
          "type": "address"
        }
      ],
      "name": "returnClaimAmountForEarlyStakeClose",
      "outputs": [
        {
          "internalType": "uint256",
          "name": "",
          "type": "uint256"
        }
      ],
      "stateMutability": "view",
      "type": "function"
    },
    {
      "inputs": [
        {
          "internalType": "uint256",
          "name": "_amount",
          "type": "uint256"
        },
        {
          "internalType": "uint256",
          "name": "_interest",
          "type": "uint256"
        },
        {
          "internalType": "uint256",
          "name": "_duration",
          "type": "uint256"
        }
      ],
      "name": "returnCompoundInterest",
      "outputs": [
        {
          "internalType": "uint256",
          "name": "",
          "type": "uint256"
        }
      ],
      "stateMutability": "view",
      "type": "function"
    },
    {
      "inputs": [
        {
          "internalType": "address",
          "name": "_stakingAddress",
          "type": "address"
        }
      ],
      "name": "returnCurrentStakeValue",
      "outputs": [
        {
          "internalType": "uint256",
          "name": "",
          "type": "uint256"
        }
      ],
      "stateMutability": "view",
      "type": "function"
    },
    {
      "inputs": [
        {
          "internalType": "uint256",
          "name": "_duration",
          "type": "uint256"
        },
        {
          "internalType": "bool",
          "name": "_epochOne",
          "type": "bool"
        },
        {
          "internalType": "bool",
          "name": "_fromStakingContract",
          "type": "bool"
        }
      ],
      "name": "returnInterestPercentage",
      "outputs": [
        {
          "internalType": "uint256",
          "name": "",
          "type": "uint256"
        }
      ],
      "stateMutability": "view",
      "type": "function"
    },
    {
      "inputs": [
        {
          "internalType": "uint256",
          "name": "_amount",
          "type": "uint256"
        },
        {
          "internalType": "uint256",
          "name": "_interest",
          "type": "uint256"
        },
        {
          "internalType": "uint256",
          "name": "_duration",
          "type": "uint256"
        }
      ],
      "name": "returnSimpleInterest",
      "outputs": [
        {
          "internalType": "uint256",
          "name": "",
          "type": "uint256"
        }
      ],
      "stateMutability": "view",
      "type": "function"
    },
    {
      "inputs": [
        {
          "internalType": "address",
          "name": "_stakingAddress",
          "type": "address"
        }
      ],
      "name": "returnStakeState",
      "outputs": [
        {
          "internalType": "uint256",
          "name": "currentStakeValue",
          "type": "uint256"
        },
        {
          "internalType": "uint256",
          "name": "stakeEndTime",
          "type": "uint256"
        },
        {
          "internalType": "uint256",
          "name": "interestRate",
          "type": "uint256"
        },
        {
          "internalType": "uint256",
          "name": "lastUpdate",
          "type": "uint256"
        },
        {
          "internalType": "bool",
          "name": "compounding",
          "type": "bool"
        },
        {
          "internalType": "uint256",
          "name": "rawInvestedAmount",
          "type": "uint256"
        },
        {
          "internalType": "uint256",
          "name": "stakeStartTime",
          "type": "uint256"
        }
      ],
      "stateMutability": "view",
      "type": "function"
    },
    {
      "inputs": [
        {
          "internalType": "address",
          "name": "_stakingAddress",
          "type": "address"
        }
      ],
      "name": "returnStakesClaimablePoolRewards",
      "outputs": [
        {
          "internalType": "uint256",
          "name": "",
          "type": "uint256"
        }
      ],
      "stateMutability": "view",
      "type": "function"
    },
    {
      "inputs": [
        {
          "internalType": "address",
          "name": "_stakingAddress",
          "type": "address"
        }
      ],
      "name": "returnStakesClaimableRewards",
      "outputs": [
        {
          "internalType": "uint256",
          "name": "",
          "type": "uint256"
        }
      ],
      "stateMutability": "view",
      "type": "function"
    },
    {
      "inputs": [
        {
          "internalType": "uint256",
          "name": "_durationInSeconds",
          "type": "uint256"
        },
        {
          "internalType": "uint256",
          "name": "_interestRate",
          "type": "uint256"
        },
        {
          "internalType": "uint256",
          "name": "_amount",
          "type": "uint256"
        },
        {
          "internalType": "bool",
          "name": "compounding",
          "type": "bool"
        }
      ],
      "name": "returnTotalInterestAmount",
      "outputs": [
        {
          "internalType": "uint256",
          "name": "",
          "type": "uint256"
        }
      ],
      "stateMutability": "view",
      "type": "function"
    },
    {
      "inputs": [
        {
          "internalType": "address",
          "name": "_user",
          "type": "address"
        }
      ],
      "name": "returnUsersStakes",
      "outputs": [
        {
          "internalType": "address[]",
          "name": "usersStakes",
          "type": "address[]"
        }
      ],
      "stateMutability": "view",
      "type": "function"
    },
    {
      "inputs": [
        {
          "internalType": "address",
          "name": "_user",
          "type": "address"
        }
      ],
      "name": "returnUsersTotalStakeValue",
      "outputs": [
        {
          "internalType": "uint256",
          "name": "",
          "type": "uint256"
        }
      ],
      "stateMutability": "view",
      "type": "function"
    },
    {
      "inputs": [
        {
          "internalType": "address",
          "name": "_user",
          "type": "address"
        }
      ],
      "name": "returnValidUsersProviderStake",
      "outputs": [
        {
          "internalType": "address",
          "name": "",
          "type": "address"
        }
      ],
      "stateMutability": "view",
      "type": "function"
    },
    {
      "inputs": [
        {
          "internalType": "address",
          "name": "_providerAddress",
          "type": "address"
        }
      ],
      "name": "setProviderAddress",
      "outputs": [],
      "stateMutability": "nonpayable",
      "type": "function"
    },
    {
      "inputs": [
        {
          "internalType": "address",
          "name": "",
          "type": "address"
        }
      ],
      "name": "staking",
      "outputs": [
        {
          "internalType": "uint256",
          "name": "investedAmount",
          "type": "uint256"
        },
        {
          "internalType": "uint256",
          "name": "stakeEndTime",
          "type": "uint256"
        },
        {
          "internalType": "uint256",
          "name": "interestRate",
          "type": "uint256"
        },
        {
          "internalType": "uint256",
          "name": "lastUpdate",
          "type": "uint256"
        },
        {
          "internalType": "bool",
          "name": "compounded",
          "type": "bool"
        },
        {
          "internalType": "uint256",
          "name": "rawInvestedAmount",
          "type": "uint256"
        },
        {
          "internalType": "uint256",
          "name": "stakeStartTime",
          "type": "uint256"
        },
        {
          "internalType": "bool",
          "name": "providerStake",
          "type": "bool"
        },
        {
          "internalType": "uint256",
          "name": "released",
          "type": "uint256"
        },
        {
          "internalType": "bool",
          "name": "poolRewardsClaimed",
          "type": "bool"
        },
        {
          "internalType": "uint256",
          "name": "totalLocked",
          "type": "uint256"
        }
      ],
      "stateMutability": "view",
      "type": "function"
    },
    {
      "inputs": [
        {
          "internalType": "address",
          "name": "newOwner",
          "type": "address"
        }
      ],
      "name": "transferOwnership",
      "outputs": [],
      "stateMutability": "nonpayable",
      "type": "function"
    }
  ],
  "transactionHash": "0xec06ffc0e75b34b93cbc7b7d63e91d5cfe47287198211edea5a03786d1a8ef34",
  "args": [
    "0x959FD7Ef9089B7142B6B908Dc3A8af7Aa8ff0FA1",
    1614507973
  ],
  "solcInputHash": "c15570ae541f6bea7258db1a2d1c0cb4",
  "bytecode": "0x60806040526228207260045560006005819055600780546001600160a01b03191690556008553480156200003257600080fd5b5060405162002f8338038062002f838339810160408190526200005591620000de565b62000060336200008e565b60018055600280546001600160a01b0319166001600160a01b0393909316929092179091556006556200011a565b600080546001600160a01b038381166001600160a01b0319831681178455604051919092169283917f8be0079c531659141344cd1fd0a4f28419497f9722a3daafe3b4186f6b6457e09190a35050565b60008060408385031215620000f257600080fd5b82516001600160a01b03811681146200010a57600080fd5b6020939093015192949293505050565b612e59806200012a6000396000f3fe6080604052600436106101815760003560e01c8063b0baa5ab116100d1578063e0c6920a1161008a578063ee7954a611610064578063ee7954a61461054b578063ef5cfb8c1461056b578063f2fde38b1461058b578063faf7756d146105ab57600080fd5b8063e0c6920a146104f5578063e7fe0c7b14610515578063ec19e2d51461052b57600080fd5b8063b0baa5ab14610349578063bb98a6bb14610369578063c3ad51c314610389578063ca20da34146103a9578063d764b78f14610400578063dc5d7fc5146104d557600080fd5b806386feef801161013e57806393a3d6de1161011857806393a3d6de146102bc5780639876e0f3146102dc5780639d878cc2146102fc578063a43b0c8d1461032957600080fd5b806386feef801461025e5780638bd404691461027e5780638da5cb5b1461029e57600080fd5b806305640cee146101865780630b30de6f146101b9578063162214c1146101d95780635e7dc7c114610211578063715018a614610227578063781749301461023e575b600080fd5b34801561019257600080fd5b506101a66101a13660046128e8565b6105cb565b6040519081526020015b60405180910390f35b3480156101c557600080fd5b506101a66101d4366004612930565b610694565b3480156101e557600080fd5b506007546101f9906001600160a01b031681565b6040516001600160a01b0390911681526020016101b0565b34801561021d57600080fd5b506101a660055481565b34801561023357600080fd5b5061023c6107a1565b005b34801561024a57600080fd5b506101a6610259366004612930565b6107e0565b34801561026a57600080fd5b506101a6610279366004612959565b6108ea565b34801561028a57600080fd5b5061023c610299366004612930565b610928565b3480156102aa57600080fd5b506000546001600160a01b03166101f9565b3480156102c857600080fd5b506101f96102d7366004612930565b610c23565b3480156102e857600080fd5b506101a66102f73660046128e8565b610d5a565b34801561030857600080fd5b5061031c610317366004612930565b610d94565b6040516101b0919061299a565b34801561033557600080fd5b5061023c6103443660046129e7565b610e0a565b34801561035557600080fd5b506101a6610364366004612930565b6111b7565b34801561037557600080fd5b5061023c610384366004612a11565b611289565b34801561039557600080fd5b506101a66103a4366004612a87565b61136d565b3480156103b557600080fd5b506103c96103c4366004612930565b611412565b6040805197885260208801969096529486019390935260608501919091521515608084015260a083015260c082015260e0016101b0565b34801561040c57600080fd5b5061047e61041b366004612930565b600960208190526000918252604090912080546001820154600283015460038401546004850154600586015460068701546007880154600889015499890154600a90990154979996989597949660ff94851696939592949182169390929116908b565b604080519b8c5260208c019a909a52988a01979097526060890195909552921515608088015260a087019190915260c0860152151560e08501526101008401521515610120830152610140820152610160016101b0565b3480156104e157600080fd5b5061023c6104f0366004612930565b611502565b34801561050157600080fd5b5061023c610510366004612ac9565b6115a2565b34801561052157600080fd5b506101a660085481565b34801561053757600080fd5b506101a6610546366004612930565b611b99565b34801561055757600080fd5b506101a6610566366004612930565b611c6d565b34801561057757600080fd5b5061023c610586366004612930565b611da2565b34801561059757600080fd5b5061023c6105a6366004612930565b6120fe565b3480156105b757600080fd5b5061023c6105c6366004612afe565b612199565b6000806105e1670de0b6b3a7640000600c612214565b905060005b6004546105f4908590612220565b81101561062d576106196106128361060c888a612214565b90612220565b879061222c565b95508061062581612b2d565b9150506105e6565b5060006106456004548561223890919063ffffffff16565b9050801561068757610684610612600c61060c60045461060c8661067e670de0b6b3a764000061060c8f8f61221490919063ffffffff16565b90612214565b95505b85925050505b9392505050565b6001600160a01b038116600090815260096020818152604080842081516101608101835281548152600182015493810184905260028201549281019290925260038101546060830152600481015460ff90811615156080840152600582015460a0840152600682015460c084015260078201548116151560e08401526008820154610100840152938101549093161515610120820152600a9092015461014083015282906107429042612244565b905060006107618360c00151846020015161224490919063ffffffff16565b90506000610785600261060c8461060c878960a0015161221490919063ffffffff16565b60a08501519091506107979082612244565b9695505050505050565b6000546001600160a01b031633146107d45760405162461bcd60e51b81526004016107cb90612b48565b60405180910390fd5b6107de6000612250565b565b6001600160a01b038116600090815260096020818152604080842081516101608101835281548152600182015493810184905260028201549281019290925260038101546060830152600481015460ff90811615156080840152600582015460a0840152600682015460c084015260078201548116151560e08401526008820154610100840152938101549093161515610120820152600a9092015461014083015282904211156108a5576060820151602083015161089e91612244565b90506108b8565b60608201516108b5904290612244565b90505b60006108d2828460400151856000015186608001516108ea565b83519091506108e1908261222c565b95945050505050565b600081156109135760006108ff8486886105cb565b905061090b8185612244565b915050610920565b60006108ff848688610d5a565b949350505050565b6002600154141561094b5760405162461bcd60e51b81526004016107cb90612b7d565b6002600155806001600160a01b0381166109775760405162461bcd60e51b81526004016107cb90612bb4565b336000908152600a60209081526040808320805482518185028101850190935280835291929091908301828280156109d857602002820191906000526020600020905b81546001600160a01b031681526001909101906020018083116109ba575b50505050509050600080600090505b82518160ff161015610a5b57836001600160a01b0316838260ff1681518110610a1257610a12612c09565b60200260200101516001600160a01b03161415610a4957828160ff1681518110610a3e57610a3e612c09565b602002602001015191505b80610a5381612c1f565b9150506109e7565b506001600160a01b038116610a825760405162461bcd60e51b81526004016107cb90612c3f565b6001600160a01b038416600090815260096020526040902060018101544210610aed5760405162461bcd60e51b815260206004820152601d60248201527f5374616b696e6720636f6e7472616374206861732066696e697368656400000060448201526064016107cb565b600a810154600554610afe91612244565b6005556000610b0c86610694565b90506000610b278284600a015461224490919063ffffffff16565b600854909150610b37908261222c565b600855610b43876122a0565b6001600160a01b0387166000908152600960208190526040822082815560018101839055600281018390556003810183905560048101805460ff19908116909155600582018490556006820184905560078201805482169055600882018490559181018054909216909155600a0155610bca335b6002546001600160a01b03169084612447565b604080516001600160a01b038916815260208101849052808201839052905133917f8e37b197e6246ce3e910cc68fb082bc41de16c6b0c96b3f55e067ec4987ba86c919081900360600190a25050600180555050505050565b6001600160a01b0381166000908152600a6020908152604080832080548251818502810185019093528083528493830182828015610c8a57602002820191906000526020600020905b81546001600160a01b03168152600190910190602001808311610c6c575b5050505050905060005b81518160ff161015610d50576000828260ff1681518110610cb757610cb7612c09565b6020908102919091018101516001600160a01b0381166000908152600990925260409091206007015490915060ff1615156001148015610d1157506001600160a01b03811660009081526009602052604090206001015442105b15610d3d57828260ff1681518110610d2b57610d2b612c09565b60200260200101519350505050919050565b5080610d4881612c1f565b915050610c94565b5060009392505050565b6000610920610d8d600c61060c60045461060c8761067e670de0b6b3a764000061060c8d8d61221490919063ffffffff16565b859061222c565b6001600160a01b0381166000908152600a6020908152604091829020805483518184028101840190945280845260609392830182828015610dfe57602002820191906000526020600020905b81546001600160a01b03168152600190910190602001808311610de0575b50505050509050919050565b60026001541415610e2d5760405162461bcd60e51b81526004016107cb90612b7d565b60026001556001600160a01b038216610e995760405162461bcd60e51b815260206004820152602860248201527f5374616b696e6720616464726573732063616e27742062652074686520307830604482015267206164647265737360c01b60648201526084016107cb565b60008111610f065760405162461bcd60e51b815260206004820152603460248201527f416d6f756e74206d7573742062652067726561746572207468616e2030207768604482015273656e20616464696e6720746f2061207374616b6560601b60648201526084016107cb565b6003546001600160a01b0316336001600160a01b031614610f7f5760405162461bcd60e51b815260206004820152602d60248201527f4f6e6c79207468652050726f766964657220636f6e74726163742063616e206160448201526c646420746f2061207374616b6560981b60648201526084016107cb565b6001600160a01b0382166000908152600960205260409020600781015460ff166110115760405162461bcd60e51b815260206004820152603c60248201527f5374616b696e674d61737465723a20546f2061646420746f2061207374616b6560448201527f206974206d75737420626520612070726f7669646572207374616b650000000060648201526084016107cb565b428160010154116110795760405162461bcd60e51b815260206004820152602c60248201527f5374616b696e674d61737465723a205374616b696e6720636f6e74726163742060448201526b1a185cc8199a5b9a5cda195960a21b60648201526084016107cb565b600181015460009061108b9042612244565b600283015460048401549192506000916110ab918491879060ff166108ea565b905060006110b9858361222c565b905060006110d485600301544261224490919063ffffffff16565b6002860154865460048801549293506000926110f6928592909160ff166108ea565b600554909150611106908461222c565b60055561111e611116888361222c565b87549061222c565b86554260038701556005860154611135908861222c565b6005870155600a860154611149908461222c565b600a870155600254611166906001600160a01b03168030866124af565b876001600160a01b03167f7c73100c416683062f141e6567d8fc8b0caa0ba403401a6efa9f826c3d932571886040516111a191815260200190565b60405180910390a2505060018055505050505050565b6001600160a01b03811660009081526009602081815260408084208151610160810183528154815260018201549381019390935260028101549183019190915260038101546060830152600481015460ff90811615156080840152600582015460a0840152600682015460c084015260078201548116151560e0840152600882015461010084015292810154909216158015610120830152600a90920154610140820152906112695750600092915050565b61068d60055461060c83610140015160085461221490919063ffffffff16565b600260015414156112ac5760405162461bcd60e51b81526004016107cb90612b7d565b60026001556000546001600160a01b031633146112db5760405162461bcd60e51b81526004016107cb90612b48565b6000805b60ff811683111561134b5761130e84848360ff1681811061130257611302612c09565b905061014002016124ed565b83838260ff1681811061132357611323612c09565b611337926101409091020135905083612c88565b91508061134381612c1f565b9150506112df565b50611364336002546001600160a01b03169030846124af565b50506001805550565b600080806113856801158e460913d000006064612220565b905060006113a661139f670de0b6b3a76400006064612220565b8890612214565b90506113b3816002612220565b9250818311156113c1578192505b8580156113cf5750600c8710155b156113f0576113e96113e2846002612220565b849061222c565b9250611407565b8415611407576114046113e2846004612220565b92505b509095945050505050565b6001600160a01b03811660009081526009602081815260408084208151610160810183528154815260018201549381019390935260028101549183019190915260038101546060830152600481015460ff90811615156080840152600582015460a0840152600682015460c084015260078201548116151560e08401526008820154610100840152928101549092161515610120820152600a90910154610140820152819081908190819081908190816114cb8a6107e0565b602083015160408401516060850151608086015160a087015160c090970151949f939e50919c509a50985092965094509092505050565b600260015414156115255760405162461bcd60e51b81526004016107cb90612b7d565b60026001556000546001600160a01b031633146115545760405162461bcd60e51b81526004016107cb90612b48565b600380546001600160a01b0319166001600160a01b0383169081179091556040517ffa6622d5336da40f5b585dfbfbbad2d27baa4fae4ca530a052dab29bc96d079890600090a25060018055565b600260015414156115c55760405162461bcd60e51b81526004016107cb90612b7d565b60026001558261162d5760405162461bcd60e51b815260206004820152602d60248201527f416d6f756e7420746f20637265617465207374616b65206d757374206265206760448201526c0726561746572207468616e203609c1b60648201526084016107cb565b6000821161168b5760405162461bcd60e51b815260206004820152602560248201527f4475726174696f6e206d757374206265206c6f6e676572207468616e2030206d6044820152646f6e74687360d81b60648201526084016107cb565b60548211156116f35760405162461bcd60e51b815260206004820152602e60248201527f4475726174696f6e206d757374206265206c657373207468616e206f7220657160448201526d75616c20746f203720796561727360901b60648201526084016107cb565b6001600160a01b03811661175c5760405162461bcd60e51b815260206004820152602a60248201527f526563697069656e7420616464726573732063616e27742062652074686520306044820152697830206164647265737360b01b60648201526084016107cb565b6003546000906001600160a01b0316336001600160a01b0316141561177f575060015b600654600090611792906212750061222c565b421115801561179e5750815b156117a7575060015b60006117b485838561136d565b90506001600c8610156117c5575060005b60006117dc6004548861221490919063ffffffff16565b905060006117ec82858b866108ea565b9050856118e1576002546040516370a0823160e01b81526001600160a01b03909116600482018190526000916370a0823190602401602060405180830381865afa15801561183e573d6000803e3d6000fd5b505050506040513d601f19601f820116820180604052508101906118629190612ca0565b905061187869065a4da25d3016c000008361222c565b8110156118df5760405162461bcd60e51b815260206004820152602f60248201527f42616c616e6365206f66204175726f7820546f6b656e206d757374206265206760448201526e726561746572207468616e2033306b60881b60648201526084016107cb565b505b60006118ed8a8361222c565b600754909150611907906001600160a01b03166001612cb9565b600780546001600160a01b0319166001600160a01b03929092169182179055600554611933908361222c565b600555871561195957600254611954906001600160a01b03168030856124af565b611989565b611971336002546001600160a01b031690308e6124af565b600254611989906001600160a01b03168030866124af565b6000611995428661222c565b90506040518061016001604052808d815260200182815260200188815260200142815260200187151581526020018d81526020014281526020018a15158152602001600081526020016000151581526020018481525060096000846001600160a01b03166001600160a01b031681526020019081526020016000206000820151816000015560208201518160010155604082015181600201556060820151816003015560808201518160040160006101000a81548160ff02191690831515021790555060a0820151816005015560c0820151816006015560e08201518160070160006101000a81548160ff02191690831515021790555061010082015181600801556101208201518160090160006101000a81548160ff02191690831515021790555061014082015181600a0155905050600a60008b6001600160a01b03166001600160a01b03168152602001908152602001600020829080600181540180825580915050600190039060005260206000200160009091909190916101000a8154816001600160a01b0302191690836001600160a01b03160217905550611b393390565b604080516001600160a01b038581168252602082018590529181018f90529116907fddd28da244a5f28bba9c56c573a5a3180278e2bb4b66b47bc9a14516b92d8ba39060600160405180910390a250506001805550505050505050505050565b6001600160a01b0381166000908152600a60209081526040808320805482518185028101850190935280835284938493929190830182828015611c0557602002820191906000526020600020905b81546001600160a01b03168152600190910190602001808311611be7575b5050505050905060005b81518160ff161015611c64576000611c42838360ff1681518110611c3557611c35612c09565b60200260200101516107e0565b9050611c4e848261222c565b9350508080611c5c90612c1f565b915050611c0f565b50909392505050565b6001600160a01b038116600090815260096020818152604080842081516101608101835281548152600182015493810184905260028201549281019290925260038101546060830152600481015460ff90811615156080840152600582015460a0840152600682015460c084015260078201548116151560e08401526008820154610100840152938101549093161515610120820152600a90920154610140830152421015611d1f5750600092915050565b600454600090611d30906002612220565b90506000611d4b82846020015161222c90919063ffffffff16565b9050804210611d69576101008301516101408401516108e191612244565b6108e1836101000151611d9c8461060c611d9088602001514261224490919063ffffffff16565b61014089015190612214565b90612244565b60026001541415611dc55760405162461bcd60e51b81526004016107cb90612b7d565b6002600155806001600160a01b038116611df15760405162461bcd60e51b81526004016107cb90612bb4565b336000908152600a6020908152604080832080548251818502810185019093528083529192909190830182828015611e5257602002820191906000526020600020905b81546001600160a01b03168152600190910190602001808311611e34575b50505050509050600080600090505b82518160ff161015611ed557836001600160a01b0316838260ff1681518110611e8c57611e8c612c09565b60200260200101516001600160a01b03161415611ec357828160ff1681518110611eb857611eb8612c09565b602002602001015191505b80611ecd81612c1f565b915050611e61565b506001600160a01b038116611efc5760405162461bcd60e51b81526004016107cb90612c3f565b6001600160a01b038416600090815260096020526040902060018101544211611f795760405162461bcd60e51b815260206004820152602960248201527f5374616b696e674d61737465723a205374616b65206973207374696c6c20696e6044820152682070726f677265737360b81b60648201526084016107cb565b600981015460009060ff16611fc957611f91866111b7565b60098301805460ff19166001179055600a830154600554919250611fb59190612244565b600555600854611fc59082612244565b6008555b6000611fd487611c6d565b6008840154909150611fe6908261222c565b60088401819055600a840154141561207157612001876122a0565b6001600160a01b0387166000908152600960208190526040822082815560018101839055600281018390556003810183905560048101805460ff19908116909155600582018490556006820184905560078201805482169055600882018490559181018054909216909155600a01555b612088336002546001600160a01b03169083612447565b600983015460ff1615801561209d5750600082115b156120ab576120ab33610bb7565b60408051828152602081018490526001600160a01b0389169133917f5edbb4c958d6c6218724840db450599207c2f649c9879fbc8ae8f5992a90f115910160405180910390a35050600180555050505050565b6000546001600160a01b031633146121285760405162461bcd60e51b81526004016107cb90612b48565b6001600160a01b03811661218d5760405162461bcd60e51b815260206004820152602660248201527f4f776e61626c653a206e6577206f776e657220697320746865207a65726f206160448201526564647265737360d01b60648201526084016107cb565b61219681612250565b50565b600260015414156121bc5760405162461bcd60e51b81526004016107cb90612b7d565b60026001556000546001600160a01b031633146121eb5760405162461bcd60e51b81526004016107cb90612b48565b6121f4816124ed565b61220d336002546001600160a01b0316903084356124af565b5060018055565b600061068d8284612ce4565b600061068d8284612d19565b600061068d8284612c88565b600061068d8284612d2d565b600061068d8284612d41565b600080546001600160a01b038381166001600160a01b0319831681178455604051919092169283917f8be0079c531659141344cd1fd0a4f28419497f9722a3daafe3b4186f6b6457e09190a35050565b336000908152600a602090815260408083208054825181850281018501909352808352919290919083018282801561230157602002820191906000526020600020905b81546001600160a01b031681526001909101906020018083116122e3575b505050505090506000805b825181101561236257836001600160a01b031683828151811061233157612331612c09565b60200260200101516001600160a01b0316141561235057809150612362565b8061235a81612b2d565b91505061230c565b5060018251111561240257816001835161237c9190612d41565b8151811061238c5761238c612c09565b6020026020010151600a600061239f3390565b6001600160a01b03166001600160a01b031681526020019081526020016000208260ff16815481106123d3576123d3612c09565b9060005260206000200160006101000a8154816001600160a01b0302191690836001600160a01b031602179055505b336000908152600a6020526040902080548061242057612420612d58565b600082815260209020810160001990810180546001600160a01b0319169055019055505050565b6040516001600160a01b0383166024820152604481018290526124aa90849063a9059cbb60e01b906064015b60408051601f198184030181529190526020810180516001600160e01b03166001600160e01b03199093169290921790915261270b565b505050565b6040516001600160a01b03808516602483015283166044820152606481018290526124e79085906323b872dd60e01b90608401612473565b50505050565b6005546124fb90823561222c565b600555600754612515906001600160a01b03166001612cb9565b600780546001600160a01b0319166001600160a01b03929092169182179055604080516101608101825283820135815260608085013560208301526080808601359383019390935260a08501359082015290810161257960e0850160c08601612d6e565b1515815260e0840135602082015261010084013560408201526060016125a761014085016101208601612d6e565b1515815260006020808301829052604080840183905286356060948501526001600160a01b0386168352600980835281842086518155868401516001820155868301516002820155948601516003860155608086015160048601805491151560ff1992831617905560a0870151600587015560c0870151600687015560e0870151600787018054911515918316919091179055610100870151600887015561012087015191860180549215159290911691909117905561014090940151600a938401559192909161267c918601908601612930565b6001600160a01b039081168252602080830193909352604091820160009081208054600181018255908252908490200180546001600160a01b031916918516918217905581519081526060858101359382019390935260e085013581830152905133927fddd28da244a5f28bba9c56c573a5a3180278e2bb4b66b47bc9a14516b92d8ba3928290030190a25050565b6000612760826040518060400160405280602081526020017f5361666545524332303a206c6f772d6c6576656c2063616c6c206661696c6564815250856001600160a01b03166127dd9092919063ffffffff16565b8051909150156124aa578080602001905181019061277e9190612d8b565b6124aa5760405162461bcd60e51b815260206004820152602a60248201527f5361666545524332303a204552433230206f7065726174696f6e20646964206e6044820152691bdd081cdd58d8d9595960b21b60648201526084016107cb565b6060610920848460008585843b6128365760405162461bcd60e51b815260206004820152601d60248201527f416464726573733a2063616c6c20746f206e6f6e2d636f6e747261637400000060448201526064016107cb565b600080866001600160a01b031685876040516128529190612dd4565b60006040518083038185875af1925050503d806000811461288f576040519150601f19603f3d011682016040523d82523d6000602084013e612894565b606091505b50915091506128a48282866128af565b979650505050505050565b606083156128be57508161068d565b8251156128ce5782518084602001fd5b8160405162461bcd60e51b81526004016107cb9190612df0565b6000806000606084860312156128fd57600080fd5b505081359360208301359350604090920135919050565b80356001600160a01b038116811461292b57600080fd5b919050565b60006020828403121561294257600080fd5b61068d82612914565b801515811461219657600080fd5b6000806000806080858703121561296f57600080fd5b843593506020850135925060408501359150606085013561298f8161294b565b939692955090935050565b6020808252825182820181905260009190848201906040850190845b818110156129db5783516001600160a01b0316835292840192918401916001016129b6565b50909695505050505050565b600080604083850312156129fa57600080fd5b612a0383612914565b946020939093013593505050565b60008060208385031215612a2457600080fd5b823567ffffffffffffffff80821115612a3c57600080fd5b818501915085601f830112612a5057600080fd5b813581811115612a5f57600080fd5b86602061014083028501011115612a7557600080fd5b60209290920196919550909350505050565b600080600060608486031215612a9c57600080fd5b833592506020840135612aae8161294b565b91506040840135612abe8161294b565b809150509250925092565b600080600060608486031215612ade57600080fd5b8335925060208401359150612af560408501612914565b90509250925092565b60006101408284031215612b1157600080fd5b50919050565b634e487b7160e01b600052601160045260246000fd5b6000600019821415612b4157612b41612b17565b5060010190565b6020808252818101527f4f776e61626c653a2063616c6c6572206973206e6f7420746865206f776e6572604082015260600190565b6020808252601f908201527f5265656e7472616e637947756172643a207265656e7472616e742063616c6c00604082015260600190565b60208082526035908201527f5374616b696e674d61737465723a205374616b696e6720616464726573732063604082015274616e2774206265207468652030206164647265737360581b606082015260800190565b634e487b7160e01b600052603260045260246000fd5b600060ff821660ff811415612c3657612c36612b17565b60010192915050565b60208082526029908201527f5374616b696e674d61737465723a205573657220646f65736e2774206f776e20604082015268746865207374616b6560b81b606082015260800190565b60008219821115612c9b57612c9b612b17565b500190565b600060208284031215612cb257600080fd5b5051919050565b60006001600160a01b03828116848216808303821115612cdb57612cdb612b17565b01949350505050565b6000816000190483118215151615612cfe57612cfe612b17565b500290565b634e487b7160e01b600052601260045260246000fd5b600082612d2857612d28612d03565b500490565b600082612d3c57612d3c612d03565b500690565b600082821015612d5357612d53612b17565b500390565b634e487b7160e01b600052603160045260246000fd5b600060208284031215612d8057600080fd5b813561068d8161294b565b600060208284031215612d9d57600080fd5b815161068d8161294b565b60005b83811015612dc3578181015183820152602001612dab565b838111156124e75750506000910152565b60008251612de6818460208701612da8565b9190910192915050565b6020815260008251806020840152612e0f816040850160208701612da8565b601f01601f1916919091016040019291505056fea264697066735822122071a5c4ef7692b55c2b0b889e5a3f9504ffc0faa58c67653fa9703fcfdbf0605064736f6c634300080a0033",
  "devdoc": {
    "kind": "dev",
    "methods": {
      "addToStake(address,uint256)": {
        "details": "Adds to a user's pre-existing stake. This can only be triggered by the Provider Contract, i.e; when a user is re-investing their rewards from the Provider Contract.",
        "params": {
          "_amount": "The additional amount to stake",
          "_stakingAddress": "The address of the stake"
        }
      },
      "batchRecreateStake((uint256,address,uint256,uint256,uint256,uint256,bool,uint256,uint256,bool)[])": {
        "details": "This function allows the recreation of multiple stakes",
        "params": {
          "recreateStakeArgs": "The array of arguments to recreate all the stakes"
        }
      },
      "claimRewards(address)": {
        "details": "Claim rewards for a given stake. This releases the allowed amount from the Vesting contract and also returns them pool rewards. This can only be called when a stake is complete and by the _recipient of the stake only.",
        "params": {
          "_stakingAddress": "The address of the stake"
        }
      },
      "closeStake(address)": {
        "details": "Close the given stake, this can only happen when a stake is incomplete and User wishes to close the stake early. This function calculates their penalised amount for withdrawing early and stores it in the StakingMaster contract as the pool reward. It then transfers their allowed amount back to the user.",
        "params": {
          "_stakingAddress": "The address of the stake"
        }
      },
      "createStaking(uint256,uint256,address)": {
        "details": "Creates a new stake for the user. It calculates their projected interest based on the parameters and stores it in a TokenVesting contract that vests their total amount over 2 weeks once their stake is complete. It also creates a struct containing all the relevant stake details.",
        "params": {
          "_amount": "The amount the user will be staking (in ether)",
          "_duration": "The duration of the stake (in months)",
          "_recipient": "The address of the user that will be receiving the stake rewards"
        }
      },
      "owner()": {
        "details": "Returns the address of the current owner."
      },
      "recreateStake((uint256,address,uint256,uint256,uint256,uint256,bool,uint256,uint256,bool))": {
        "details": "This function allows the migration of a Stake contract from the previous StakingMaster",
        "params": {
          "recreateStakeArgs": "All the arguments required to recreate the stake"
        }
      },
      "renounceOwnership()": {
        "details": "Leaves the contract without owner. It will not be possible to call `onlyOwner` functions anymore. Can only be called by the current owner. NOTE: Renouncing ownership will leave the contract without an owner, thereby removing any functionality that is only available to the owner."
      },
      "returnCurrentStakeValue(address)": {
        "details": "Returns the given stake value corresponding to the stake address",
        "returns": {
          "_0": "_stakingAddress The staking address to return the value for"
        }
      },
      "returnStakeState(address)": {
        "details": "Returns a given stakes state",
        "params": {
          "_stakingAddress": "The address of the stake"
        },
        "returns": {
          "compounding": "Whether the stake is compounding",
          "currentStakeValue": "The current value of the stake, including interest up until now",
          "interestRate": "The interest rate of the stake",
          "lastUpdate": "When the stake last had value added to it, or when it was created (if no additional value has been added to the stake)",
          "rawInvestedAmount": "The User's invested amount (excluding interest)",
          "stakeEndTime": "When the stake will finish",
          "stakeStartTime": "When the stake was created"
        }
      },
      "returnStakesClaimablePoolRewards(address)": {
        "details": "Returns a stakes claimable pool rewards",
        "params": {
          "_stakingAddress": "The stake to return the claimable pool rewards for"
        },
        "returns": {
          "_0": "The claimable pool reward amount"
        }
      },
      "returnStakesClaimableRewards(address)": {
        "details": "Returns a stakes claimable rewards, ",
        "params": {
          "_stakingAddress": "The stake to return the claimable rewards for"
        },
        "returns": {
          "_0": "The claimable amount"
        }
      },
      "returnUsersStakes(address)": {
        "details": "Returns a given user's stakes",
        "params": {
          "_user": "The user to return stakes for"
        },
        "returns": {
          "usersStakes": "An array containing the addreses of all the user's created stakes"
        }
      },
      "returnUsersTotalStakeValue(address)": {
        "details": "Returns a given user's total stake value across all the user's stakes, including all interest earnt up until now.",
        "params": {
          "_user": "The user to return the value for"
        },
        "returns": {
          "_0": "The users total stake value"
        }
      },
      "returnValidUsersProviderStake(address)": {
        "details": "Returns a user's staking address if the stake is in progress and was created by the provider contract. Function intended to be called by the provider contract when the user is claiming rewards and intending them to be sent to a Staking contract",
        "params": {
          "_user": "The user to return valid stakes for"
        },
        "returns": {
          "_0": "The valid stake address"
        }
      },
      "setProviderAddress(address)": {
        "details": "Allows the owner to set the provider address for checking if interactions are from the provider. Allow this to be overwritten in case of redeployments",
        "params": {
          "_providerAddress": "The contract address of the provider"
        }
      },
      "transferOwnership(address)": {
        "details": "Transfers ownership of the contract to a new account (`newOwner`). Can only be called by the current owner."
      }
    },
    "version": 1
  },
  "userdoc": {
    "kind": "user",
    "methods": {},
    "version": 1
  },
  "storageLayout": {
    "storage": [
      {
        "astId": 7,
        "contract": "contracts/StakingMaster/StakingMaster.sol:StakingMaster",
        "label": "_owner",
        "offset": 0,
        "slot": "0",
        "type": "t_address"
      },
      {
        "astId": 114,
        "contract": "contracts/StakingMaster/StakingMaster.sol:StakingMaster",
        "label": "_status",
        "offset": 0,
        "slot": "1",
        "type": "t_uint256"
      },
      {
        "astId": 3877,
        "contract": "contracts/StakingMaster/StakingMaster.sol:StakingMaster",
        "label": "auroxToken",
        "offset": 0,
        "slot": "2",
        "type": "t_contract(IERC20)767"
      },
      {
        "astId": 3879,
        "contract": "contracts/StakingMaster/StakingMaster.sol:StakingMaster",
        "label": "providerAddress",
        "offset": 0,
        "slot": "3",
        "type": "t_address"
      },
      {
        "astId": 3882,
        "contract": "contracts/StakingMaster/StakingMaster.sol:StakingMaster",
        "label": "secondsPerMonth",
        "offset": 0,
        "slot": "4",
        "type": "t_uint256"
      },
      {
        "astId": 3885,
        "contract": "contracts/StakingMaster/StakingMaster.sol:StakingMaster",
        "label": "investedTotal",
        "offset": 0,
        "slot": "5",
        "type": "t_uint256"
      },
      {
        "astId": 3887,
        "contract": "contracts/StakingMaster/StakingMaster.sol:StakingMaster",
        "label": "epochStart",
        "offset": 0,
        "slot": "6",
        "type": "t_uint256"
      },
      {
        "astId": 3890,
        "contract": "contracts/StakingMaster/StakingMaster.sol:StakingMaster",
        "label": "localCreationCount",
        "offset": 0,
        "slot": "7",
        "type": "t_uint160"
      },
      {
        "astId": 3893,
        "contract": "contracts/StakingMaster/StakingMaster.sol:StakingMaster",
        "label": "poolRewardsTotal",
        "offset": 0,
        "slot": "8",
        "type": "t_uint256"
      },
      {
        "astId": 3898,
        "contract": "contracts/StakingMaster/StakingMaster.sol:StakingMaster",
        "label": "staking",
        "offset": 0,
        "slot": "9",
        "type": "t_mapping(t_address,t_struct(Staking)3714_storage)"
      },
      {
        "astId": 3903,
        "contract": "contracts/StakingMaster/StakingMaster.sol:StakingMaster",
        "label": "userInvestments",
        "offset": 0,
        "slot": "10",
        "type": "t_mapping(t_address,t_array(t_address)dyn_storage)"
      }
    ],
    "types": {
      "t_address": {
        "encoding": "inplace",
        "label": "address",
        "numberOfBytes": "20"
      },
      "t_array(t_address)dyn_storage": {
        "base": "t_address",
        "encoding": "dynamic_array",
        "label": "address[]",
        "numberOfBytes": "32"
      },
      "t_bool": {
        "encoding": "inplace",
        "label": "bool",
        "numberOfBytes": "1"
      },
      "t_contract(IERC20)767": {
        "encoding": "inplace",
        "label": "contract IERC20",
        "numberOfBytes": "20"
      },
      "t_mapping(t_address,t_array(t_address)dyn_storage)": {
        "encoding": "mapping",
        "key": "t_address",
        "label": "mapping(address => address[])",
        "numberOfBytes": "32",
        "value": "t_array(t_address)dyn_storage"
      },
      "t_mapping(t_address,t_struct(Staking)3714_storage)": {
        "encoding": "mapping",
        "key": "t_address",
        "label": "mapping(address => struct IStakingMaster.Staking)",
        "numberOfBytes": "32",
        "value": "t_struct(Staking)3714_storage"
      },
      "t_struct(Staking)3714_storage": {
        "encoding": "inplace",
        "label": "struct IStakingMaster.Staking",
        "members": [
          {
            "astId": 3693,
            "contract": "contracts/StakingMaster/StakingMaster.sol:StakingMaster",
            "label": "investedAmount",
            "offset": 0,
            "slot": "0",
            "type": "t_uint256"
          },
          {
            "astId": 3695,
            "contract": "contracts/StakingMaster/StakingMaster.sol:StakingMaster",
            "label": "stakeEndTime",
            "offset": 0,
            "slot": "1",
            "type": "t_uint256"
          },
          {
            "astId": 3697,
            "contract": "contracts/StakingMaster/StakingMaster.sol:StakingMaster",
            "label": "interestRate",
            "offset": 0,
            "slot": "2",
            "type": "t_uint256"
          },
          {
            "astId": 3699,
            "contract": "contracts/StakingMaster/StakingMaster.sol:StakingMaster",
            "label": "lastUpdate",
            "offset": 0,
            "slot": "3",
            "type": "t_uint256"
          },
          {
            "astId": 3701,
            "contract": "contracts/StakingMaster/StakingMaster.sol:StakingMaster",
            "label": "compounded",
            "offset": 0,
            "slot": "4",
            "type": "t_bool"
          },
          {
            "astId": 3703,
            "contract": "contracts/StakingMaster/StakingMaster.sol:StakingMaster",
            "label": "rawInvestedAmount",
            "offset": 0,
            "slot": "5",
            "type": "t_uint256"
          },
          {
            "astId": 3705,
            "contract": "contracts/StakingMaster/StakingMaster.sol:StakingMaster",
            "label": "stakeStartTime",
            "offset": 0,
            "slot": "6",
            "type": "t_uint256"
          },
          {
            "astId": 3707,
            "contract": "contracts/StakingMaster/StakingMaster.sol:StakingMaster",
            "label": "providerStake",
            "offset": 0,
            "slot": "7",
            "type": "t_bool"
          },
          {
            "astId": 3709,
            "contract": "contracts/StakingMaster/StakingMaster.sol:StakingMaster",
            "label": "released",
            "offset": 0,
            "slot": "8",
            "type": "t_uint256"
          },
          {
            "astId": 3711,
            "contract": "contracts/StakingMaster/StakingMaster.sol:StakingMaster",
            "label": "poolRewardsClaimed",
            "offset": 0,
            "slot": "9",
            "type": "t_bool"
          },
          {
            "astId": 3713,
            "contract": "contracts/StakingMaster/StakingMaster.sol:StakingMaster",
            "label": "totalLocked",
            "offset": 0,
            "slot": "10",
            "type": "t_uint256"
          }
        ],
        "numberOfBytes": "352"
      },
      "t_uint160": {
        "encoding": "inplace",
        "label": "uint160",
        "numberOfBytes": "20"
      },
      "t_uint256": {
        "encoding": "inplace",
        "label": "uint256",
        "numberOfBytes": "32"
      }
    }
  }
}